:100000000C943C000C9459000C9459000C94590029
:100010000C9459000C9459000C9459000C945900FC
:100020000C9459000C9459000C9459000C945900EC
:100030000C9459000C9459000C9459000C945900DC
:100040000C9459000C9459000C9459000C945900CC
:100050000C9459000C9459000C9459000C945900BC
:100060000C9459000C945900556D69643A20200095
:1000700054656D703A20200011241FBECFEFD8E0E8
:10008000DEBFCDBF11E0A0E0B1E0ECEDFFE402C0C7
:1000900005900D92A634B107D9F721E0A6E4B1E0AE
:1000A00001C01D92A035B207E1F70E94A5210C9472
:1000B000EC270C940000CF93DF93CDB7DEB785EC2F
:1000C00090E0FC01108284EC90E027E6FC012083A4
:1000D00080EC90E020EC30E0F90120812D7FFC01E4
:1000E000208382EC90E026E0FC01208381EC90E00C
:1000F00028E1FC01208380E091E090934D01809302
:100100004C0180E091E090934B0180934A01000004
:10011000DF91CF910895CF93DF9300D01F92CDB799
:10012000DEB789837B836A8389818A3031F48A814F
:100130009B81BC018DE00E948B0080EC90E0FC0173
:100140008081882F90E080729927892BB1F386EC0B
:1001500090E02981FC01208380E090E00F900F90D7
:100160000F90DF91CF910895CF93DF9300D0CDB75B
:10017000DEB79A83898380EC90E0FC01808188233C
:10018000D4F786EC90E0FC018081882F90E00F90FE
:100190000F90DF91CF9108950F931F93CF93DF932B
:1001A000CDB7DEB7C05DD1090FB6F894DEBF0FBE84
:1001B000CDBF9E0121533F4FF9018083CE01805373
:1001C0009F4FFC016083CE0180539F4FFC018081D3
:1001D000882351F485E290E025E230E0F9012081A6
:1001E0002E7FFC01208309C085E290E025E230E00B
:1001F000F90120812160FC0120838BE290E02BE259
:1002000030E0F9012081422F4F709E0121533F4F72
:10021000F9012081207F242BFC01208380E090E0E5
:10022000A0E8BFE38D839E83AF83B8878E01075517
:100230001F4F2BEA3AEA4AEA50E46D817E818F81B2
:1002400098850E945E23DC01CB01F80180839183B5
:10025000A283B3838E0103551F4F20E030E040E8B6
:1002600050E46D817E818F8198850E945E23DC0140
:10027000CB01F80180839183A283B383CE0187559C
:100280009F4F20E030E040E85FE3FC016081718136
:10029000828193810E943E2288233CF4CE018F54B8
:1002A0009F4F21E0FC0120832CC1CE0183559F4F3D
:1002B00020E03FEF4FE757E4FC01608171818281CC
:1002C00093810E94592318160CF0CDC020E030E035
:1002D0004AE754E46D817E818F8198850E94432294
:1002E000DC01CB019E012E543F4FF90180839183A5
:1002F000A283B3838E010A541F4FCE018E549F4FA9
:1003000020E030E04AE755E4FC01608171818281A0
:1003100093810E945E23DC01CB01F80180839183ED
:10032000A283B383CE018A549F4F20E030E040E89F
:100330005FE3FC0160817181828193810E943E2292
:1003400088234CF4CE0186549F4F21E030E0FC011D
:10035000318320836DC0CE018A549F4F20E03FEF50
:100360004FE757E4FC0160817181828193810E9493
:10037000592318160CF04AC0CE018E549F4F20E02E
:1003800030E040E251E4FC0160817181828193811F
:100390000E945E23DC01CB018E0106541F4FBC017D
:1003A000CD010E94B522DC01CB01F801918380834D
:1003B00024C0CE0184549F4F20E931E0FC013183F9
:1003C0002083CE0184549F4FFC018081918101974D
:1003D000F1F79E0124543F4FF90191838083CE01B0
:1003E00086549F4F9E0126543F4FF9012081318151
:1003F00021503109FC0131832083CE0186549F4F67
:10040000FC0180819181892BA1F67BC08E0106546D
:100410001F4FCE018A549F4FFC0160817181828100
:1004200093810E94B522DC01CB01F8019183808386
:10043000CE0182549F4F9E0126543F4FF9012081E7
:100440003181FC0131832083CE0182549F4FFC0116
:10045000808191810197F1F79E0122543F4FF9016C
:10046000918380834EC0CE0187559F4F20E030E0BE
:100470004FE753E4FC0160817181828193810E9486
:10048000592318166CF58E0100541F4FCE01835569
:100490009F4FFC0160817181828193810E94B5220E
:1004A000DC01CB01F80191838083CE018E539F4FF5
:1004B0009E0120543F4FF90120813181FC0131839D
:1004C0002083CE018E539F4FFC0180819181019743
:1004D000F1F79E012E533F4FF9019183808328C08D
:1004E0008E010F541F4FCE0187559F4FFC01608135
:1004F0007181828193810E94B522DC01CB01F801D8
:100500008083CE018C539F4F9E012F543F4FF901A2
:100510002081FC012083CE018C539F4FFC01808100
:10052000282F2A95F1F7CE018C539F4FFC01208391
:1005300085E290E025E230E0F90120812260FC01B3
:10054000208380E090E0A0E8BFE389879A87AB87AB
:10055000BC878E0103571F4F2BEA3AEA4AEA50E460
:1005600069857A858B859C850E945E23DC01CB01A1
:10057000F80180839183A283B3838E010F561F4FAE
:1005800020E030E040E850E469857A858B859C85E1
:100590000E945E23DC01CB01F80180839183A2835A
:1005A000B383CE0183579F4F20E030E040E85FE304
:1005B000FC0160817181828193810E943E228823A7
:1005C0003CF4CE018B569F4F21E0FC0120832CC1CF
:1005D000CE018F569F4F20E03FEF4FE757E4FC01DD
:1005E00060817181828193810E94592318160CF0D9
:1005F000CDC020E030E04AE754E469857A858B85F8
:100600009C850E944322DC01CB019E012A563F4F6C
:10061000F90180839183A283B3838E0106561F4F15
:10062000CE018A569F4F20E030E04AE755E4FC01B6
:1006300060817181828193810E945E23DC01CB0104
:10064000F80180839183A283B383CE0186569F4FA6
:1006500020E030E040E85FE3FC016081718182814D
:1006600093810E943E2288234CF4CE0182569F4FF4
:1006700021E030E0FC01318320836DC0CE0186563D
:100680009F4F20E03FEF4FE757E4FC01608171810D
:10069000828193810E94592318160CF04AC0CE0122
:1006A0008A569F4F20E030E040E251E4FC01608137
:1006B0007181828193810E945E23DC01CB018E01D6
:1006C00002561F4FBC01CD010E94B522DC01CB01B7
:1006D000F8019183808324C0CE0180569F4F20E98A
:1006E00031E0FC0131832083CE0180569F4FFC0115
:1006F000808191810197F1F79E0120563F4FF901CA
:1007000091838083CE0182569F4F9E0122563F4F98
:10071000F9012081318121503109FC01318320838D
:10072000CE0182569F4FFC0180819181892BA1F6D9
:100730007BC08E0102561F4FCE0186569F4FFC0193
:1007400060817181828193810E94B522DC01CB019D
:10075000F80191838083CE018E559F4F9E012256D2
:100760003F4FF90120813181FC0131832083CE018B
:100770008E559F4FFC01808191810197F1F79E0179
:100780002E553F4FF901918380834EC0CE01835790
:100790009F4F20E030E04FE753E4FC01608171811E
:1007A000828193810E94592318166CF58E010C5595
:1007B0001F4FCE018F569F4FFC0160817181828156
:1007C00093810E94B522DC01CB01F80191838083E3
:1007D000CE018A559F4F9E012C553F4FF901208134
:1007E0003181FC0131832083CE018A559F4FFC016A
:1007F000808191810197F1F79E012A553F4FF901C0
:100800009183808328C08E010B561F4FCE018357E2
:100810009F4FFC0160817181828193810E94B5228A
:10082000DC01CB01F8018083CE0188559F4F9E01EA
:100830002B563F4FF9012081FC012083CE018855C2
:100840009F4FFC018081282F2A95F1F7CE01885512
:100850009F4FFC01208385E290E025E230E0F90122
:1008600020812D7FFC01208380E090E0A4E3B2E4AE
:100870008D879E87AF87B88B8E010F581F4F2BEA4D
:100880003AEA4AEA50E46D857E858F8598890E9410
:100890005E23DC01CB01F80180839183A283B383C3
:1008A0008E010B581F4F20E030E040E850E46D858A
:1008B0007E858F8598890E945E23DC01CB01F8013B
:1008C00080839183A283B383CE018F589F4F20E012
:1008D00030E040E85FE3FC016081718182819381B7
:1008E0000E943E2288233CF4CE0187589F4F21E08E
:1008F000FC0120832CC1CE018B589F4F20E03FEF9D
:100900004FE757E4FC0160817181828193810E94ED
:10091000592318160CF0CDC020E030E04AE754E42B
:100920006D857E858F8598890E944322DC01CB01ED
:100930009E0126583F4FF90180839183A283B383A0
:100940008E0102581F4FCE0186589F4F20E030E0A5
:100950004AE755E4FC0160817181828193810E94A4
:100960005E23DC01CB01F80180839183A283B383F2
:10097000CE0182589F4F20E030E040E85FE3FC0169
:1009800060817181828193810E943E2288234CF490
:10099000CE018E579F4F21E030E0FC013183208350
:1009A0006DC0CE0182589F4F20E03FEF4FE757E4E4
:1009B000FC0160817181828193810E945923181604
:1009C0000CF04AC0CE0186589F4F20E030E040E254
:1009D00051E4FC0160817181828193810E945E23D8
:1009E000DC01CB018E010E571F4FBC01CD010E94CF
:1009F000B522DC01CB01F8019183808324C0CE01B4
:100A00008C579F4F20E931E0FC0131832083CE01D8
:100A10008C579F4FFC01808191810197F1F79E01D6
:100A20002C573F4FF90191838083CE018E579F4F02
:100A30009E012E573F4FF90120813181215031090C
:100A4000FC0131832083CE018E579F4FFC018081B2
:100A50009181892BA1F67BC08E010E571F4FCE01CD
:100A600082589F4FFC0160817181828193810E9435
:100A7000B522DC01CB01F80191838083CE018A5736
:100A80009F4F9E012E573F4FF90120813181FC017C
:100A900031832083CE018A579F4FFC018081918151
:100AA0000197F1F79E012A573F4FF9019183808307
:100AB0004EC0CE018F589F4F20E030E04FE753E407
:100AC000FC0160817181828193810E9459231816F3
:100AD0006CF58E0108571F4FCE018B589F4FFC01BC
:100AE00060817181828193810E94B522DC01CB01FA
:100AF000F80191838083CE0186579F4F9E0128572E
:100B00003F4FF90120813181FC0131832083CE01E7
:100B100086579F4FFC01808191810197F1F79E01DB
:100B200026573F4FF9019183808328C08E010758D3
:100B30001F4FCE018F589F4FFC01608171818281D0
:100B400093810E94B522DC01CB01F8018083CE01A4
:100B500084579F4F9E0127583F4FF9012081FC0188
:100B60002083CE0184579F4FFC018081282F2A9536
:100B7000F1F7CE0184579F4FFC0120838BE290E078
:100B80002BE230E0F9012081422F4F709E0121536A
:100B90003F4FF9012081222F30E022953295307F9E
:100BA0003227207F3227242BFC01208380E090E035
:100BB000A0E8BFE3898B9A8BAB8BBC8B8E010B5A61
:100BC0001F4F2BEA3AEA4AEA50E469897A898B890D
:100BD0009C890E945E23DC01CB01F8018083918314
:100BE000A283B3838E01075A1F4F20E030E040E814
:100BF00050E469897A898B899C890E945E23DC0193
:100C0000CB01F80180839183A283B383CE018B5AF9
:100C10009F4F20E030E040E85FE3FC01608171819C
:100C2000828193810E943E2288233CF4CE01835A24
:100C30009F4F21E0FC0120832CC1CE01875A9F4F9A
:100C400020E03FEF4FE757E4FC0160817181828132
:100C500093810E94592318160CF0CDC020E030E09B
:100C60004AE754E469897A898B899C890E944322E6
:100C7000DC01CB019E01225A3F4FF9018083918311
:100C8000A283B3838E010E591F4FCE01825A9F4F0C
:100C900020E030E04AE755E4FC0160817181828107
:100CA00093810E945E23DC01CB01F8018083918354
:100CB000A283B383CE018E599F4F20E030E040E8FD
:100CC0005FE3FC0160817181828193810E943E22F9
:100CD00088234CF4CE018A599F4F21E030E0FC017B
:100CE000318320836DC0CE018E599F4F20E03FEFAE
:100CF0004FE757E4FC0160817181828193810E94FA
:100D0000592318160CF04AC0CE01825A9F4F20E09A
:100D100030E040E251E4FC01608171818281938185
:100D20000E945E23DC01CB018E010A591F4FBC01DA
:100D3000CD010E94B522DC01CB01F80191838083B3
:100D400024C0CE0188599F4F20E931E0FC01318356
:100D50002083CE0188599F4FFC01808191810197AA
:100D6000F1F79E0128593F4FF90191838083CE010D
:100D70008A599F4F9E012A593F4FF90120813181A5
:100D800021503109FC0131832083CE018A599F4FC4
:100D9000FC0180819181892BA1F67BC08E010A59CB
:100DA0001F4FCE018E599F4FFC016081718182815E
:100DB00093810E94B522DC01CB01F80191838083ED
:100DC000CE0186599F4F9E012A593F4FF90120813C
:100DD0003181FC0131832083CE0186599F4FFC0174
:100DE000808191810197F1F79E0126593F4FF901CA
:100DF000918380834EC0CE018B5A9F4F20E030E01C
:100E00004FE753E4FC0160817181828193810E94EC
:100E1000592318166CF58E0104591F4FCE01875ABD
:100E20009F4FFC0160817181828193810E94B52274
:100E3000DC01CB01F80191838083CE0182599F4F61
:100E40009E0124593F4FF90120813181FC013183FA
:100E50002083CE0182599F4FFC01808191810197AF
:100E6000F1F79E0122593F4FF9019183808328C0F9
:100E70008E01035A1F4FCE018B5A9F4FFC01608198
:100E80007181828193810E94B522DC01CB01F8013E
:100E90008083CE0180599F4F9E01235A3F4FF90115
:100EA0002081FC012083CE0180599F4FFC0180816D
:100EB000282F2A95F1F7CE0180599F4FFC012083FE
:100EC00085E290E025E230E0F90120812260FC011A
:100ED000208380E090E0A0E8BFE38D8B9E8BAF8BFA
:100EE000B88F2BEA3AEA4AEA50E46D897E898F8905
:100EF000988D0E945E23DC01CB0189AF9AAFABAF26
:100F0000BCAF20E030E040E850E46D897E898F89F5
:100F1000988D0E945E23DC01CB019E01235C3F4F34
:100F2000F90180839183A283B38320E030E040E81D
:100F30005FE369AD7AAD8BAD9CAD0E943E22882304
:100F40003CF4CE018F5B9F4F21E0FC01208322C146
:100F500020E03FEF4FE757E4CE01CD96FC016081E2
:100F60007181828193810E94592318160CF0CDC0A3
:100F700020E030E04AE754E46D897E898F89988DBE
:100F80000E944322DC01CB019E012E5B3F4FF90101
:100F900080839183A283B3838E010A5B1F4FCE01AE
:100FA0008E5B9F4F20E030E04AE755E4FC01608112
:100FB0007181828193810E945E23DC01CB01F80163
:100FC00080839183A283B383CE018A5B9F4F20E00D
:100FD00030E040E85FE3FC016081718182819381B0
:100FE0000E943E2288234CF4CE01865B9F4F21E075
:100FF00030E0FC01318320836DC0CE018A5B9F4FBE
:1010000020E03FEF4FE757E4FC016081718182816E
:1010100093810E94592318160CF04AC0CE018E5BB2
:101020009F4F20E030E040E251E4FC01608171819B
:10103000828193810E945E23DC01CB018E01065BDD
:101040001F4FBC01CD010E94B522DC01CB01F8018C
:101050009183808324C0CE01845B9F4F20E931E0DF
:10106000FC0131832083CE01845B9F4FFC01808192
:1010700091810197F1F79E01245B3F4FF901918324
:101080008083CE01865B9F4F9E01265B3F4FF90117
:101090002081318121503109FC0131832083CE012F
:1010A000865B9F4FFC0180819181892BA1F672C0E4
:1010B0008E01065B1F4FCE018A5B9F4FFC01608152
:1010C0007181828193810E94B522DC01CB01F801FC
:1010D00091838083CE01825B9F4F9E01265B3F4FB1
:1010E000F90120813181FC0131832083CE01825BB3
:1010F0009F4FFC01808191810197F1F79E01225B56
:101100003F4FF9019183808345C020E030E04FE7F5
:1011100053E469AD7AAD8BAD9CAD0E94592318168E
:1011200064F58E01005B1F4FCE01CD96FC016081FE
:101130007181828193810E94B522DC01CB01F8018B
:1011400091838083CE018E5A9F4F9E01205B3F4F3B
:10115000F90120813181FC0131832083CE018E5A37
:101160009F4FFC01808191810197F1F79E012E5ADA
:101170003F4FF9019183808324C08E010F5B1F4F85
:1011800069AD7AAD8BAD9CAD0E94B522DC01CB017F
:10119000F8018083CE018C5A9F4F9E012F5B3F4FF9
:1011A000F9012081FC012083CE018C5A9F4FFC0164
:1011B0008081282F2A95F1F7CE018C5A9F4FFC0190
:1011C000208385E290E025E230E0F90120812D7F47
:1011D000FC01208380E090E0A4E3B2E4898F9A8F41
:1011E000AB8FBC8F2BEA3AEA4AEA50E4698D7A8DDC
:1011F0008B8D9C8D0E945E23DC01CB018D8F9E8F99
:10120000AF8FB8A320E030E040E850E4698D7A8DDC
:101210008B8D9C8D0E945E23DC01CB0189A39AA358
:10122000ABA3BCA320E030E040E85FE36D8D7E8D92
:101230008F8D98A10E943E2288231CF481E08DA30B
:10124000B2C020E03FEF4FE757E469A17AA18BA13C
:101250009CA10E94592318160CF07BC020E030E0BE
:101260004AE754E4698D7A8D8B8D9C8D0E944322D0
:10127000DC01CB018EA39FA3A8A7B9A720E030E093
:101280004AE755E46EA17FA188A599A50E945E2337
:10129000DC01CB018AA79BA7ACA7BDA720E030E06B
:1012A00040E85FE36AA57BA58CA59DA50E943E2230
:1012B00088232CF481E090E09FA78EA73FC020E018
:1012C0003FEF4FE757E46AA57BA58CA59DA50E943B
:1012D000592318164CF520E030E040E251E46EA1AD
:1012E0007FA188A599A50E945E23DC01CB01BC01EA
:1012F000CD010E94B522DC01CB019FA78EA70FC0B4
:1013000080E991E099AB88AB88A999A90197F1F799
:1013100099AB88AB8EA59FA501979FA78EA78EA599
:101320009FA5892B69F73FC06AA57BA58CA59DA5C4
:101330000E94B522DC01CB019FA78EA78EA59FA599
:101340009BAB8AAB8AA99BA90197F1F79BAB8AABB0
:101350002AC020E030E04FE753E46D8D7E8D8F8D05
:1013600098A10E9459231816ACF469A17AA18BA107
:101370009CA10E94B522DC01CB019DAB8CAB8CA95A
:101380009DA99FAB8EAB8EA99FA90197F1F79FAB4B
:101390008EAB0FC06D8D7E8D8F8D98A10E94B52272
:1013A000DC01CB018DA38DA188AF88AD8A95F1F7C3
:1013B00088AFCE0180539F4FFC018081882309F0C4
:1013C000C0C0CE0181539F4FFC018081843008F062
:1013D000B8C080E090E0A0E0B0E489839A83AB835A
:1013E000BC838E010B531F4F20E030E04AE755E4E9
:1013F00069817A818B819C810E945E23DC01CB0113
:10140000F80180839183A283B383CE018B539F4FD6
:1014100020E030E040E85FE3FC016081718182817F
:1014200093810E943E2288234CF4CE0187539F4F24
:1014300021E030E0FC013183208369C0CE018B5371
:101440009F4F20E03FEF4FE757E4FC01608171813F
:10145000828193810E94592318160CF046C020E027
:1014600030E040E251E469817A818B819C810E9465
:101470005E23DC01CB018E0107531F4FBC01CD0160
:101480000E94B522DC01CB01F8019183808324C046
:10149000CE0185539F4F20E931E0FC013183208349
:1014A000CE0185539F4FFC01808191810197F1F717
:1014B0009E0125533F4FF90191838083CE018753CD
:1014C0009F4F9E0127533F4FF901208131812150C9
:1014D0003109FC0131832083CE0187539F4FFC01EA
:1014E00080819181892BA1F62CC08E0107531F4F5B
:1014F000CE018B539F4FFC0160817181828193816A
:101500000E94B522DC01CB01F80191838083CE01DA
:1015100083539F4F9E0127533F4FF9012081318113
:10152000FC0131832083CE0183539F4FFC018081D6
:1015300091810197F1F79E0123533F4FF901918368
:1015400080830000C053DF4F0FB6F894DEBF0FBE9C
:10155000CDBFDF91CF911F910F9108950F931F93EE
:10156000CF93DF93CDB7DEB7CC5BD1400FB6F89405
:10157000DEBF0FBECDBF85E290E025E230E0F9018D
:1015800020812E7FFC01208385E290E025E230E07F
:10159000F90120812D7FFC01208380E090E0A0EA0A
:1015A000B1E489839A83AB83BC838E010D541E4FB3
:1015B00020E030E04AE755E469817A818B819C81A3
:1015C0000E945E23DC01CB01F80180839183A2831A
:1015D000B383CE018D549E4F20E030E040E85FE3BE
:1015E000FC0160817181828193810E943E22882367
:1015F0004CF4CE0189549E4F21E030E0FC01318350
:10160000208369C0CE018D549E4F20E03FEF4FE70D
:1016100057E4FC0160817181828193810E9459238A
:1016200018160CF046C020E030E040E251E4698139
:101630007A818B819C810E945E23DC01CB018E012B
:1016400009541E4FBC01CD010E94B522DC01CB0123
:10165000F8019183808324C0CE0187549E4F20E9F6
:1016600031E0FC0131832083CE0187549E4FFC0181
:10167000808191810197F1F79E0127543E4FF90136
:1016800091838083CE0189549E4F9E0129543E4F01
:10169000F9012081318121503109FC0131832083FE
:1016A000CE0189549E4FFC0180819181892BA1F646
:1016B0002CC08E0109541E4FCE018D549E4FFC014B
:1016C00060817181828193810E94B522DC01CB010E
:1016D000F80191838083CE0185549E4F9E01295449
:1016E0003E4FF90120813181FC0131832083CE01FD
:1016F00085549E4FFC01808191810197F1F79E01F5
:1017000025543E4FF901918380838BE290E02BE2D8
:1017100030E0F90120812F702063FC01208380E0FC
:1017200090E0A0E8BFE38D839E83AF83B8878E01EE
:1017300009561E4F2BEA3AEA4AEA50E46D817E814F
:101740008F8198850E945E23DC01CB01F8018083A4
:101750009183A283B3838E0105561E4F20E030E0B3
:1017600040E850E46D817E818F8198850E945E23E0
:10177000DC01CB01F80180839183A283B383CE0186
:1017800089569E4F20E030E040E85FE3FC01608135
:101790007181828193810E943E2288233CF4CE0194
:1017A00081569E4F21E0FC0120832CC1CE0185563D
:1017B0009E4F20E03FEF4FE757E4FC0160817181CD
:1017C000828193810E94592318160CF0CDC020E02D
:1017D00030E04AE754E46D817E818F8198850E94D4
:1017E0004322DC01CB019E0120563E4FF90180834C
:1017F0009183A283B3838E010C551E4FCE01805678
:101800009E4F20E030E04AE755E4FC0160817181A1
:10181000828193810E945E23DC01CB01F8018083E9
:101820009183A283B383CE018C559E4F20E030E09C
:1018300040E85FE3FC0160817181828193810E94B5
:101840003E2288234CF4CE0188559E4F21E030E0A3
:10185000FC01318320836DC0CE018C559E4F20E06A
:101860003FEF4FE757E4FC016081718182819381F2
:101870000E94592318160CF04AC0CE0180569E4F84
:1018800020E030E040E251E4FC016081718182811E
:1018900093810E945E23DC01CB018E0108551E4F0F
:1018A000BC01CD010E94B522DC01CB01F80191837E
:1018B000808324C0CE0186559E4F20E931E0FC0193
:1018C00031832083CE0186559E4FFC01808191811A
:1018D0000197F1F79E0126553E4FF90191838083D0
:1018E000CE0188559E4F9E0128553E4FF90120811B
:1018F000318121503109FC0131832083CE0188558B
:101900009E4FFC0180819181892BA1F67BC08E01C5
:1019100008551E4FCE018C559E4FFC016081718190
:10192000828193810E94B522DC01CB01F801918371
:101930008083CE0184559E4F9E0128553E4FF9016C
:1019400020813181FC0131832083CE0184559E4F5B
:10195000FC01808191810197F1F79E0124553E4F52
:10196000F901918380834EC0CE0189569E4F20E0BD
:1019700030E04FE753E4FC01608171818281938103
:101980000E94592318166CF58E0102551E4FCE0188
:1019900085569E4FFC0160817181828193810E94F6
:1019A000B522DC01CB01F80191838083CE01805503
:1019B0009E4F9E0122553E4FF90120813181FC014D
:1019C00031832083CE0180559E4FFC01808191811F
:1019D0000197F1F79E0120553E4FF90191838083D5
:1019E00028C08E0101561E4FCE0189569E4FFC0124
:1019F00060817181828193810E94B522DC01CB01DB
:101A0000F8018083CE018E549E4F9E0121563E4F99
:101A1000F9012081FC012083CE018E549E4FFC01F0
:101A20008081282F2A95F1F7CE018E549E4FFC011C
:101A3000208385E290E025E230E0F90120812260F8
:101A4000FC01208380E090E0A0E8BFE389879A87CB
:101A5000AB87BC878E0105581E4F2BEA3AEA4AEA4B
:101A600050E469857A858B859C850E945E23DC0124
:101A7000CB01F80180839183A283B3838E01015847
:101A80001E4F20E030E040E850E469857A858B8580
:101A90009C850E945E23DC01CB01F8018083918349
:101AA000A283B383CE0185589E4F20E030E040E80A
:101AB0005FE3FC0160817181828193810E943E22FB
:101AC00088233CF4CE018D579E4F21E0FC012083FA
:101AD0002CC1CE0181589E4F20E03FEF4FE757E4E5
:101AE000FC0160817181828193810E9459231816C3
:101AF0000CF0CDC020E030E04AE754E469857A85F7
:101B00008B859C850E944322DC01CB019E012C57D2
:101B10003E4FF90180839183A283B3838E010857DE
:101B20001E4FCE018C579E4F20E030E04AE755E42F
:101B3000FC0160817181828193810E945E23DC01BE
:101B4000CB01F80180839183A283B383CE018857B0
:101B50009E4F20E030E040E85FE3FC01608171814E
:101B6000828193810E943E2288234CF4CE018457C7
:101B70009E4F21E030E0FC01318320836DC0CE0117
:101B800088579E4F20E03FEF4FE757E4FC0160810C
:101B90007181828193810E94592318160CF04AC0EA
:101BA000CE018C579E4F20E030E040E251E4FC0132
:101BB00060817181828193810E945E23DC01CB016F
:101BC0008E0104571E4FBC01CD010E94B522DC01DD
:101BD000CB01F8019183808324C0CE0182579E4FB0
:101BE00020E931E0FC0131832083CE0182579E4FF2
:101BF000FC01808191810197F1F79E0122573E4FB0
:101C0000F90191838083CE0184579E4F9E01245712
:101C10003E4FF9012081318121503109FC0131838E
:101C20002083CE0184579E4FFC0180819181892BB6
:101C3000A1F67BC08E0104571E4FCE0188579E4FE0
:101C4000FC0160817181828193810E94B522DC0157
:101C5000CB01F80191838083CE0180579E4F9E0176
:101C600024573E4FF90120813181FC0131832083CB
:101C7000CE0180579E4FFC01808191810197F1F741
:101C80009E0120573E4FF901918380834EC0CE01C3
:101C900085589E4F20E030E04FE753E4FC0160811F
:101CA0007181828193810E94592318166CF58E01EF
:101CB0000E561E4FCE0181589E4FFC0160817181EE
:101CC000828193810E94B522DC01CB01F8019183CE
:101CD0008083CE018C569E4F9E012E563E4FF901B9
:101CE00020813181FC0131832083CE018C569E4FAF
:101CF000FC01808191810197F1F79E012C563E4FA6
:101D0000F9019183808328C08E010D571E4FCE01AB
:101D100085589E4FFC0160817181828193810E9470
:101D2000B522DC01CB01F8018083CE018A569E4F9B
:101D30009E012D573E4FF9012081FC012083CE01E9
:101D40008A569E4FFC018081282F2A95F1F7CE01FB
:101D50008A569E4FFC01208385E290E025E230E028
:101D6000F90120812D7FFC01208380E090E0A4E335
:101D7000B2E48D879E87AF87B88B8E01015A1E4FC4
:101D80002BEA3AEA4AEA50E46D857E858F85988988
:101D90000E945E23DC01CB01F80180839183A28342
:101DA000B3838E010D591E4F20E030E040E850E42F
:101DB0006D857E858F8598890E945E23DC01CB012D
:101DC000F80180839183A283B383CE01815A9E4F11
:101DD00020E030E040E85FE3FC01608171818281B6
:101DE00093810E943E2288233CF4CE0189599E4F64
:101DF00021E0FC0120832CC1CE018D599E4F20E0B3
:101E00003FEF4FE757E4FC0160817181828193814C
:101E10000E94592318160CF0CDC020E030E04AE7AC
:101E200054E46D857E858F8598890E944322DC016C
:101E3000CB019E0128593E4FF90180839183A283F3
:101E4000B3838E0104591E4FCE0188599E4F20E066
:101E500030E04AE755E4FC01608171818281938121
:101E60000E945E23DC01CB01F80180839183A28371
:101E7000B383CE0184599E4F20E030E040E85FE319
:101E8000FC0160817181828193810E943E228823BE
:101E90004CF4CE0180599E4F21E030E0FC013183AB
:101EA00020836DC0CE0184599E4F20E03FEF4FE765
:101EB00057E4FC0160817181828193810E945923E2
:101EC00018160CF04AC0CE0188599E4F20E030E031
:101ED00040E251E4FC0160817181828193810E9422
:101EE0005E23DC01CB018E0100591E4FBC01CD01E8
:101EF0000E94B522DC01CB01F8019183808324C0CC
:101F0000CE018E589E4F20E931E0FC0131832083C1
:101F1000CE018E589E4FFC01808191810197F1F78F
:101F20009E012E583E4FF90191838083CE01805946
:101F30009E4F9E0120593E4FF90120813181215051
:101F40003109FC0131832083CE0180599E4FFC0171
:101F500080819181892BA1F67BC08E0100591E4F93
:101F6000CE0184599E4FFC016081718182819381F1
:101F70000E94B522DC01CB01F80191838083CE0160
:101F80008C589E4F9E0120593E4FF901208131818E
:101F9000FC0131832083CE018C589E4FFC0180814F
:101FA00091810197F1F79E012C583E4FF9019183E1
:101FB00080834EC0CE01815A9E4F20E030E04FE733
:101FC00053E4FC0160817181828193810E945923D5
:101FD00018166CF58E010A581E4FCE018D599E4F72
:101FE000FC0160817181828193810E94B522DC01B4
:101FF000CB01F80191838083CE0188589E4F9E01CA
:102000002A583E4FF90120813181FC013183208320
:10201000CE0188589E4FFC01808191810197F1F794
:102020009E0128583E4FF9019183808328C08E017C
:1020300009591E4FCE01815A9E4FFC01608171816A
:10204000828193810E94B522DC01CB01F80180835B
:10205000CE0186589E4F9E0129593E4FF90120819D
:10206000FC012083CE0186589E4FFC018081282FE1
:102070002A95F1F7CE0186589E4FFC01208380E01F
:1020800090E0A0EAB0E4898B9A8BAB8BBC8B8E017D
:102090000B5A1E4F20E030E04AE755E469897A89FF
:1020A0008B899C890E945E23DC01CB01F80180832F
:1020B0009183A283B383CE018B5A9E4F20E030E000
:1020C00040E85FE3FC0160817181828193810E941D
:1020D0003E2288234CF4CE01875A9E4F21E030E007
:1020E000FC013183208369C0CE018B5A9E4F20E0D2
:1020F0003FEF4FE757E4FC0160817181828193815A
:102100000E94592318160CF046C020E030E040E24F
:1021100051E469897A898B899C890E945E23DC015C
:10212000CB018E01075A1E4FBC01CD010E94B52282
:10213000DC01CB01F8019183808324C0CE01855A54
:102140009E4F20E931E0FC0131832083CE01855A86
:102150009E4FFC01808191810197F1F79E01255AE4
:102160003E4FF90191838083CE01875A9E4F9E0195
:10217000275A3E4FF9012081318121503109FC015C
:1021800031832083CE01875A9E4FFC01808191814B
:10219000892BA1F62CC08E01075A1E4FCE018B5AF7
:1021A0009E4FFC0160817181828193810E94B522E2
:1021B000DC01CB01F80191838083CE01835A9E4FCD
:1021C0009E01275A3E4FF90120813181FC01318364
:1021D0002083CE01835A9E4FFC018081918101971B
:1021E000F1F79E01235A3E4FF9019183808380E0ED
:1021F00090E0A0E8BFE38D8B9E8BAF8BB88F8E01F4
:10220000075C1E4F2BEA3AEA4AEA50E46D897E8960
:102210008F89988D0E945E23DC01CB01F8018083B9
:102220009183A283B3838E01035C1E4F20E030E0D4
:1022300040E850E46D897E898F89988D0E945E23E5
:10224000DC01CB01F80180839183A283B383CE01AB
:10225000875C9E4F20E030E040E85FE3FC01608156
:102260007181828193810E943E2288233CF4CE01B9
:102270008F5B9E4F21E0FC0120832CC1CE01835C4B
:102280009E4F20E03FEF4FE757E4FC0160817181F2
:10229000828193810E94592318160CF0CDC020E052
:1022A00030E04AE754E46D897E898F89988D0E94D9
:1022B0004322DC01CB019E012E5B3E4FF90180835E
:1022C0009183A283B3838E010A5B1E4FCE018E5B86
:1022D0009E4F20E030E04AE755E4FC0160817181C7
:1022E000828193810E945E23DC01CB01F80180830F
:1022F0009183A283B383CE018A5B9E4F20E030E0BE
:1023000040E85FE3FC0160817181828193810E94DA
:102310003E2288234CF4CE01865B9E4F21E030E0C4
:10232000FC01318320836DC0CE018A5B9E4F20E08B
:102330003FEF4FE757E4FC01608171818281938117
:102340000E94592318160CF04AC0CE018E5B9E4F96
:1023500020E030E040E251E4FC0160817181828143
:1023600093810E945E23DC01CB018E01065B1E4F30
:10237000BC01CD010E94B522DC01CB01F8019183A3
:10238000808324C0CE01845B9E4F20E931E0FC01B4
:1023900031832083CE01845B9E4FFC01808191813B
:1023A0000197F1F79E01245B3E4FF90191838083F1
:1023B000CE01865B9E4F9E01265B3E4FF901208138
:1023C000318121503109FC0131832083CE01865BAC
:1023D0009E4FFC0180819181892BA1F67BC08E01EB
:1023E000065B1E4FCE018A5B9E4FFC0160817181AE
:1023F000828193810E94B522DC01CB01F801918397
:102400008083CE01825B9E4F9E01265B3E4FF90189
:1024100020813181FC0131832083CE01825B9E4F7C
:10242000FC01808191810197F1F79E01225B3E4F73
:10243000F901918380834EC0CE01875C9E4F20E0DE
:1024400030E04FE753E4FC01608171818281938128
:102450000E94592318166CF58E01005B1E4FCE01A9
:10246000835C9E4FFC0160817181828193810E9417
:10247000B522DC01CB01F80191838083CE018E5A15
:102480009E4F9E01205B3E4FF90120813181FC016E
:1024900031832083CE018E5A9E4FFC018081918131
:1024A0000197F1F79E012E5A3E4FF90191838083E7
:1024B00028C08E010F5B1E4FCE01875C9E4FFC0132
:1024C00060817181828193810E94B522DC01CB0100
:1024D000F8018083CE018C5A9E4F9E012F5B3E4FA8
:1024E000F9012081FC012083CE018C5A9E4FFC0112
:1024F0008081282F2A95F1F7CE018C5A9E4FFC013E
:10250000208385E290E025E230E0F901208122601D
:10251000FC01208380E090E0A0E8BFE3898F9A8FE0
:10252000AB8FBC8F8E01035E1E4F2BEA3AEA4AEA5C
:1025300050E4698D7A8D8B8D9C8D0E945E23DC0129
:10254000CB01F80180839183A283B3838E010F5D59
:102550001E4F20E030E040E850E4698D7A8D8B8D8D
:102560009C8D0E945E23DC01CB01F8018083918366
:10257000A283B383CE01835E9E4F20E030E040E82B
:102580005FE3FC0160817181828193810E943E2220
:1025900088233CF4CE018B5D9E4F21E0FC0120831B
:1025A0002CC1CE018F5D9E4F20E03FEF4FE757E4F7
:1025B000FC0160817181828193810E9459231816E8
:1025C0000CF0CDC020E030E04AE754E4698D7A8D0C
:1025D0008B8D9C8D0E944322DC01CB019E012A5DE4
:1025E0003E4FF90180839183A283B3838E01065D00
:1025F0001E4FCE018A5D9E4F20E030E04AE755E451
:10260000FC0160817181828193810E945E23DC01E3
:10261000CB01F80180839183A283B383CE01865DD1
:102620009E4F20E030E040E85FE3FC016081718173
:10263000828193810E943E2288234CF4CE01825DE8
:102640009E4F21E030E0FC01318320836DC0CE013C
:10265000865D9E4F20E03FEF4FE757E4FC0160812D
:102660007181828193810E94592318160CF04AC00F
:10267000CE018A5D9E4F20E030E040E251E4FC0153
:1026800060817181828193810E945E23DC01CB0194
:102690008E01025D1E4FBC01CD010E94B522DC01FE
:1026A000CB01F8019183808324C0CE01805D9E4FD1
:1026B00020E931E0FC0131832083CE01805D9E4F13
:1026C000FC01808191810197F1F79E01205D3E4FD1
:1026D000F90191838083CE01825D9E4F9E01225D30
:1026E0003E4FF9012081318121503109FC013183B4
:1026F0002083CE01825D9E4FFC0180819181892BD8
:10270000A1F67BC08E01025D1E4FCE01865D9E4FFD
:10271000FC0160817181828193810E94B522DC017C
:10272000CB01F80191838083CE018E5C9E4F9E0188
:10273000225D3E4FF90120813181FC0131832083EC
:10274000CE018E5C9E4FFC01808191810197F1F753
:102750009E012E5C3E4FF901918380834EC0CE01D5
:10276000835E9E4F20E030E04FE753E4FC01608140
:102770007181828193810E94592318166CF58E0114
:102780000C5C1E4FCE018F5D9E4FFC0160817181FC
:10279000828193810E94B522DC01CB01F8019183F3
:1027A0008083CE018A5C9E4F9E012C5C3E4FF901D6
:1027B00020813181FC0131832083CE018A5C9E4FD0
:1027C000FC01808191810197F1F79E012A5C3E4FC7
:1027D000F9019183808328C08E010B5D1E4FCE01CD
:1027E000835E9E4FFC0160817181828193810E9492
:1027F000B522DC01CB01F8018083CE01885C9E4FBD
:102800009E012B5D3E4FF9012081FC012083CE010A
:10281000885C9E4FFC018081282F2A95F1F7CE011C
:10282000885C9E4FFC01208385E290E025E230E049
:10283000F90120812D7FFC01208380E090E0A4E35A
:10284000B2E48D8F9E8FAF8FB8A38E010F5F1E4FA6
:102850002BEA3AEA4AEA50E46D8D7E8D8F8D98A17D
:102860000E945E23DC01CB01F80180839183A28367
:10287000B3838E010B5F1E4F20E030E040E850E450
:102880006D8D7E8D8F8D98A10E945E23DC01CB0122
:10289000F80180839183A283B383CE018F5F9E4F23
:1028A00020E030E040E85FE3FC01608171818281DB
:1028B00093810E943E2288233CF4CE01875F9E4F85
:1028C00021E0FC0120832CC1CE018B5F9E4F20E0D4
:1028D0003FEF4FE757E4FC01608171818281938172
:1028E0000E94592318160CF0CDC020E030E04AE7D2
:1028F00054E46D8D7E8D8F8D98A10E944322DC0162
:10290000CB019E01265F3E4FF90180839183A28314
:10291000B3838E01025F1E4FCE01865F9E4F20E083
:1029200030E04AE755E4FC01608171818281938146
:102930000E945E23DC01CB01F80180839183A28396
:10294000B383CE01825F9E4F20E030E040E85FE33A
:10295000FC0160817181828193810E943E228823E3
:102960004CF4CE018E5E9E4F21E030E0FC013183BD
:1029700020836DC0CE01825F9E4F20E03FEF4FE786
:1029800057E4FC0160817181828193810E94592307
:1029900018160CF04AC0CE01865F9E4F20E030E052
:1029A00040E251E4FC0160817181828193810E9447
:1029B0005E23DC01CB018E010E5E1E4FBC01CD01FA
:1029C0000E94B522DC01CB01F8019183808324C0F1
:1029D000CE018C5E9E4F20E931E0FC0131832083E3
:1029E000CE018C5E9E4FFC01808191810197F1F7B1
:1029F0009E012C5E3E4FF90191838083CE018E5E55
:102A00009E4F9E012E5E3E4FF90120813181215063
:102A10003109FC0131832083CE018E5E9E4FFC0183
:102A200080819181892BA1F67BC08E010E5E1E4FA5
:102A3000CE01825F9E4FFC01608171818281938112
:102A40000E94B522DC01CB01F80191838083CE0185
:102A50008A5E9E4F9E012E5E3E4FF901208131819C
:102A6000FC0131832083CE018A5E9E4FFC01808170
:102A700091810197F1F79E012A5E3E4FF901918302
:102A800080834EC0CE018F5F9E4F20E030E04FE745
:102A900053E4FC0160817181828193810E945923FA
:102AA00018166CF58E01085E1E4FCE018B5F9E4F8F
:102AB000FC0160817181828193810E94B522DC01D9
:102AC000CB01F80191838083CE01865E9E4F9E01EB
:102AD000285E3E4FF90120813181FC013183208342
:102AE000CE01865E9E4FFC01808191810197F1F7B6
:102AF0009E01265E3E4FF9019183808328C08E019E
:102B0000075F1E4FCE018F5F9E4FFC016081718178
:102B1000828193810E94B522DC01CB01F801808380
:102B2000CE01845E9E4F9E01275F3E4FF9012081BA
:102B3000FC012083CE01845E9E4FFC018081282F02
:102B40002A95F1F7CE01845E9E4FFC01208380E040
:102B500090E0A8E4B3E489A39AA3ABA3BCA38E013D
:102B60000B511F4F2BEA3AEA4AEA50E469A17AA1D5
:102B70008BA19CA10E945E23DC01CB01F801808324
:102B80009183A283B3838E0107511F4F20E030E071
:102B900040E850E469A17AA18BA19CA10E945E2328
:102BA000DC01CB01F80180839183A283B383CE0142
:102BB0008B519F4F20E030E040E85FE3FC016081F3
:102BC0007181828193810E943E2288233CF4CE0150
:102BD00083519F4F21E0FC0120832CC1CE018751FE
:102BE0009F4F20E03FEF4FE757E4FC016081718188
:102BF000828193810E94592318160CF0CDC020E0E9
:102C000030E04AE754E469A17AA18BA19CA10E941B
:102C10004322DC01CB019E0122513F4FF901808309
:102C20009183A283B3838E010E501F4FCE01825138
:102C30009F4F20E030E04AE755E4FC01608171815C
:102C4000828193810E945E23DC01CB01F8018083A5
:102C50009183A283B383CE018E509F4F20E030E05A
:102C600040E85FE3FC0160817181828193810E9471
:102C70003E2288234CF4CE018A509F4F21E030E061
:102C8000FC01318320836DC0CE018E509F4F20E028
:102C90003FEF4FE757E4FC016081718182819381AE
:102CA0000E94592318160CF04AC0CE0182519F4F42
:102CB00020E030E040E251E4FC01608171818281DA
:102CC00093810E945E23DC01CB018E010A501F4FCD
:102CD000BC01CD010E94B522DC01CB01F80191833A
:102CE000808324C0CE0188509F4F20E931E0FC0151
:102CF00031832083CE0188509F4FFC0180819181D8
:102D00000197F1F79E0128503F4FF901918380838D
:102D1000CE018A509F4F9E012A503F4FF9012081DA
:102D2000318121503109FC0131832083CE018A5049
:102D30009F4FFC0180819181892BA1F67BC08E0180
:102D40000A501F4FCE018E509F4FFC016081718150
:102D5000828193810E94B522DC01CB01F80191832D
:102D60008083CE0186509F4F9E012A503F4FF9012C
:102D700020813181FC0131832083CE0186509F4F19
:102D8000FC01808191810197F1F79E0126503F4F10
:102D9000F901918380834EC0CE018B519F4F20E07B
:102DA00030E04FE753E4FC016081718182819381BF
:102DB0000E94592318166CF58E0104501F4FCE0146
:102DC00087519F4FFC0160817181828193810E94B4
:102DD000B522DC01CB01F80191838083CE018250C2
:102DE0009F4F9E0124503F4FF90120813181FC010A
:102DF00031832083CE0182509F4FFC0180819181DD
:102E00000197F1F79E0122503F4FF9019183808392
:102E100025C08E0103511F4FCE018B519F4FFC01E6
:102E200060817181828193810E94B522DC01CB0196
:102E3000F8018083CE0193959E0123513F4FF90104
:102E40002081FC012083CE019395FC018081282FF5
:102E50002A95F1F7CE019395FC01208380E090E064
:102E6000A0E8BFE38DA39EA3AFA3B8A78E0107532D
:102E70001F4F2BEA3AEA4AEA50E46DA17EA18FA1E6
:102E800098A50E945E23DC01CB01F8018083918329
:102E9000A283B3838E0103531F4F20E030E040E84C
:102EA00050E46DA17EA18FA198A50E945E23DC0154
:102EB000CB01F80180839183A283B383CE01875332
:102EC0009F4F20E030E040E85FE3FC0160817181CA
:102ED000828193810E943E2288233CF4CE018F524E
:102EE0009F4F21E0FC0120832CC1CE0183539F4FD3
:102EF00020E03FEF4FE757E4FC0160817181828160
:102F000093810E94592318160CF0CDC020E030E0C8
:102F10004AE754E46DA17EA18FA198A50E944322A7
:102F2000DC01CB019E012E523F4FF901808391833A
:102F3000A283B3838E010A521F4FCE018E529F4F40
:102F400020E030E04AE755E4FC0160817181828134
:102F500093810E945E23DC01CB01F8018083918381
:102F6000A283B383CE018A529F4F20E030E040E835
:102F70005FE3FC0160817181828193810E943E2226
:102F800088234CF4CE0186529F4F21E030E0FC01B3
:102F9000318320836DC0CE018A529F4F20E03FEFE6
:102FA0004FE757E4FC0160817181828193810E9427
:102FB000592318160CF04AC0CE018E529F4F20E0C4
:102FC00030E040E251E4FC016081718182819381B3
:102FD0000E945E23DC01CB018E0106521F4FBC0113
:102FE000CD010E94B522DC01CB01F80191838083E1
:102FF00024C0CE0184529F4F20E931E0FC0131838F
:103000002083CE0184529F4FFC01808191810197E2
:10301000F1F79E0124523F4FF90191838083CE0145
:1030200086529F4F9E0126523F4FF90120813181E8
:1030300021503109FC0131832083CE0186529F4FFC
:10304000FC0180819181892BA1F67BC08E01065203
:103050001F4FCE018A529F4FFC0160817181828196
:1030600093810E94B522DC01CB01F801918380831A
:10307000CE0182529F4F9E0126523F4FF90120817F
:103080003181FC0131832083CE0182529F4FFC01AC
:10309000808191810197F1F79E0122523F4FF90102
:1030A000918380834EC0CE0187539F4F20E030E054
:1030B0004FE753E4FC0160817181828193810E941A
:1030C000592318166CF58E0100521F4FCE01835301
:1030D0009F4FFC0160817181828193810E94B522A2
:1030E000DC01CB01F80191838083CE018E519F4F8B
:1030F0009E0120523F4FF90120813181FC01318333
:103100002083CE018E519F4FFC01808191810197D8
:10311000F1F79E012E513F4FF9019183808328C022
:103120008E010F521F4FCE0187539F4FFC016081CC
:103130007181828193810E94B522DC01CB01F8016B
:103140008083CE018C519F4F9E012F523F4FF9013A
:103150002081FC012083CE018C519F4FFC01808196
:10316000282F2A95F1F7CE018C519F4FFC01208327
:1031700085E290E025E230E0F90120812260FC0147
:10318000208380E090E0A0E8BFE389A79AA7ABA7DF
:10319000BCA78E0103551F4F2BEA3AEA4AEA50E4D6
:1031A00069A57AA58BA59CA50E945E23DC01CB01B5
:1031B000F80180839183A283B3838E010F541F4F44
:1031C00020E030E040E850E469A57AA58BA59CA5F5
:1031D0000E945E23DC01CB01F80180839183A283EE
:1031E000B383CE0183559F4F20E030E040E85FE39A
:1031F000FC0160817181828193810E943E2288233B
:103200003CF4CE018B549F4F21E0FC0120832CC164
:10321000CE018F549F4F20E03FEF4FE757E4FC0172
:1032200060817181828193810E94592318160CF06C
:10323000CDC020E030E04AE754E469A57AA58BA52B
:103240009CA50E944322DC01CB019E012A543F4FE2
:10325000F90180839183A283B3838E0106541F4FAB
:10326000CE018A549F4F20E030E04AE755E4FC014C
:1032700060817181828193810E945E23DC01CB0198
:10328000F80180839183A283B383CE0186549F4F3C
:1032900020E030E040E85FE3FC01608171818281E1
:1032A00093810E943E2288234CF4CE0182549F4F8A
:1032B00021E030E0FC01318320836DC0CE018654D3
:1032C0009F4F20E03FEF4FE757E4FC0160817181A1
:1032D000828193810E94592318160CF04AC0CE01B6
:1032E0008A549F4F20E030E040E251E4FC016081CD
:1032F0007181828193810E945E23DC01CB018E016A
:1033000002541F4FBC01CD010E94B522DC01CB014C
:10331000F8019183808324C0CE0180549F4F20E91F
:1033200031E0FC0131832083CE0180549F4FFC01AA
:10333000808191810197F1F79E0120543F4FF9015F
:1033400091838083CE0182549F4F9E0122543F4F30
:10335000F9012081318121503109FC013183208321
:10336000CE0182549F4FFC0180819181892BA1F66F
:103370007BC08E0102541F4FCE0186549F4FFC012B
:1033800060817181828193810E94B522DC01CB0131
:10339000F80191838083CE018E539F4F9E0122546A
:1033A0003F4FF90120813181FC0131832083CE011F
:1033B0008E539F4FFC01808191810197F1F79E010F
:1033C0002E533F4FF901918380834EC0CE01835528
:1033D0009F4F20E030E04FE753E4FC0160817181B2
:1033E000828193810E94592318166CF58E010C532B
:1033F0001F4FCE018F549F4FFC01608171818281EC
:1034000093810E94B522DC01CB01F8019183808376
:10341000CE018A539F4F9E012C533F4FF9012081CB
:103420003181FC0131832083CE018A539F4FFC01FF
:10343000808191810197F1F79E012A533F4FF90155
:103440009183808328C08E010B541F4FCE0183557A
:103450009F4FFC0160817181828193810E94B5221E
:10346000DC01CB01F8018083CE0188539F4F9E0180
:103470002B543F4FF9012081FC012083CE0188535A
:103480009F4FFC018081282F2A95F1F7CE018853A8
:103490009F4FFC01208385E290E025E230E0F901B6
:1034A00020812D7FFC01208380E090E0A4E3B2E442
:1034B0008DA79EA7AFA7B8AB8E010F561F4F2BEA63
:1034C0003AEA4AEA50E46DA57EA58FA598A90E9424
:1034D0005E23DC01CB01F80180839183A283B38357
:1034E0008E010B561F4F20E030E040E850E46DA500
:1034F0007EA58FA598A90E945E23DC01CB01F8016F
:1035000080839183A283B383CE018F569F4F20E0A7
:1035100030E040E85FE3FC0160817181828193814A
:103520000E943E2288233CF4CE0187569F4F21E023
:10353000FC0120832CC1CE018B569F4F20E03FEF32
:103540004FE757E4FC0160817181828193810E9481
:10355000592318160CF0CDC020E030E04AE754E4BF
:103560006DA57EA58FA598A90E944322DC01CB0101
:103570009E0126563F4FF90180839183A283B38336
:103580008E0102561F4FCE0186569F4F20E030E03D
:103590004AE755E4FC0160817181828193810E9438
:1035A0005E23DC01CB01F80180839183A283B38386
:1035B000CE0182569F4F20E030E040E85FE3FC01FF
:1035C00060817181828193810E943E2288234CF424
:1035D000CE018E559F4F21E030E0FC0131832083E6
:1035E0006DC0CE0182569F4F20E03FEF4FE757E47A
:1035F000FC0160817181828193810E945923181698
:103600000CF04AC0CE0186569F4F20E030E040E2E9
:1036100051E4FC0160817181828193810E945E236B
:10362000DC01CB018E010E551F4FBC01CD010E9464
:10363000B522DC01CB01F8019183808324C0CE0147
:103640008C559F4F20E931E0FC0131832083CE016E
:103650008C559F4FFC01808191810197F1F79E016C
:103660002C553F4FF90191838083CE018E559F4F9A
:103670009E012E553F4FF9012081318121503109A2
:10368000FC0131832083CE018E559F4FFC01808148
:103690009181892BA1F67BC08E010E551F4FCE0163
:1036A00082569F4FFC0160817181828193810E94CB
:1036B000B522DC01CB01F80191838083CE018A55CC
:1036C0009F4F9E012E553F4FF90120813181FC0112
:1036D00031832083CE018A559F4FFC0180819181E7
:1036E0000197F1F79E012A553F4FF901918380839D
:1036F0004EC0CE018F569F4F20E030E04FE753E49D
:10370000FC0160817181828193810E945923181686
:103710006CF58E0108551F4FCE018B569F4FFC0153
:1037200060817181828193810E94B522DC01CB018D
:10373000F80191838083CE0186559F4F9E012855C5
:103740003F4FF90120813181FC0131832083CE017B
:1037500086559F4FFC01808191810197F1F79E0171
:1037600026553F4FF9019183808328C08E0107566B
:103770001F4FCE018F569F4FFC0160817181828166
:1037800093810E94B522DC01CB01F8018083CE0138
:1037900084559F4F9E0127563F4FF9012081FC0120
:1037A0002083CE0184559F4FFC018081282F2A95CC
:1037B000F1F7CE0184559F4FFC0120838BE290E00E
:1037C0002BE230E0F90120812F702062FC01208380
:1037D00080E090E0A0E8BFE389AB9AABABABBCABB9
:1037E0008E010B581F4F2BEA3AEA4AEA50E469A9C6
:1037F0007AA98BA99CA90E945E23DC01CB01F80168
:1038000080839183A283B3838E0107581F4F20E0EA
:1038100030E040E850E469A97AA98BA99CA90E94EC
:103820005E23DC01CB01F80180839183A283B38303
:10383000CE018B589F4F20E030E040E85FE3FC0171
:1038400060817181828193810E943E2288233CF4B1
:10385000CE0183589F4F21E0FC0120832CC1CE0173
:1038600087589F4F20E03FEF4FE757E4FC0160810E
:103870007181828193810E94592318160CF0CDC06A
:1038800020E030E04AE754E469A97AA98BA99CA911
:103890000E944322DC01CB019E0122583F4FF901D7
:1038A00080839183A283B3838E010E571F4FCE0175
:1038B00082589F4F20E030E04AE755E4FC016081E8
:1038C0007181828193810E945E23DC01CB01F8012A
:1038D00080839183A283B383CE018E579F4F20E0D4
:1038E00030E040E85FE3FC01608171818281938177
:1038F0000E943E2288234CF4CE018A579F4F21E03C
:1039000030E0FC01318320836DC0CE018E579F4F84
:1039100020E03FEF4FE757E4FC0160817181828135
:1039200093810E94592318160CF04AC0CE01825888
:103930009F4F20E030E040E251E4FC016081718162
:10394000828193810E945E23DC01CB018E010A57A4
:103950001F4FBC01CD010E94B522DC01CB01F80153
:103960009183808324C0CE0188579F4F20E931E0A6
:10397000FC0131832083CE0188579F4FFC01808159
:1039800091810197F1F79E0128573F4FF9019183EB
:103990008083CE018A579F4F9E012A573F4FF901DE
:1039A0002081318121503109FC0131832083CE01F6
:1039B0008A579F4FFC0180819181892BA1F67BC0A2
:1039C0008E010A571F4FCE018E579F4FFC01608119
:1039D0007181828193810E94B522DC01CB01F801C3
:1039E00091838083CE0186579F4F9E012A573F4F78
:1039F000F90120813181FC0131832083CE0186577A
:103A00009F4FFC01808191810197F1F79E0126571C
:103A10003F4FF901918380834EC0CE018B589F4F59
:103A200020E030E04FE753E4FC0160817181828146
:103A300093810E94592318166CF58E0104571F4F6D
:103A4000CE0187589F4FFC016081718182819381F3
:103A50000E94B522DC01CB01F80191838083CE0165
:103A600082579F4F9E0124573F4FF901208131819A
:103A7000FC0131832083CE0182579F4FFC0180815E
:103A800091810197F1F79E0122573F4FF9019183F0
:103A9000808328C08E0103581F4FCE018B589F4F43
:103AA000FC0160817181828193810E94B522DC01D9
:103AB000CB01F8018083CE0180579F4F9E01235890
:103AC0003F4FF9012081FC012083CE0180579F4F99
:103AD000FC018081282F2A95F1F7CE0180579F4F56
:103AE000FC01208385E290E025E230E0F9012081AD
:103AF0002260FC01208380E090E0A0E8BFE38DAB72
:103B00009EABAFABB8AF8E01075A1F4F2BEA3AEA14
:103B10004AEA50E46DA97EA98FA998AD0E945E2360
:103B2000DC01CB01F80180839183A283B3838E01F2
:103B3000035A1F4F20E030E040E850E46DA97EA911
:103B40008FA998AD0E945E23DC01CB01F801808330
:103B50009183A283B383CE01875A9F4F20E030E048
:103B600040E85FE3FC0160817181828193810E9462
:103B70003E2288233CF4CE018F599F4F21E0FC0167
:103B800020832CC1CE01835A9F4F20E03FEF4FE7A7
:103B900057E4FC0160817181828193810E945923E5
:103BA00018160CF0CDC020E030E04AE754E46DA9CF
:103BB0007EA98FA998AD0E944322DC01CB019E0112
:103BC0002E593F4FF90180839183A283B3838E01E5
:103BD0000A591F4FCE018E599F4F20E030E04AE72F
:103BE00055E4FC0160817181828193810E945E2392
:103BF000DC01CB01F80180839183A283B383CE01E2
:103C00008A599F4F20E030E040E85FE3FC0160818B
:103C10007181828193810E943E2288234CF4CE01DF
:103C200086599F4F21E030E0FC01318320836DC035
:103C3000CE018A599F4F20E03FEF4FE757E4FC0148
:103C400060817181828193810E94592318160CF042
:103C50004AC0CE018E599F4F20E030E040E251E44F
:103C6000FC0160817181828193810E945E23DC016D
:103C7000CB018E0106591F4FBC01CD010E94B52218
:103C8000DC01CB01F8019183808324C0CE018459EB
:103C90009F4F20E931E0FC0131832083CE0184591C
:103CA0009F4FFC01808191810197F1F79E0124597A
:103CB0003F4FF90191838083CE0186599F4F9E012A
:103CC00026593F4FF9012081318121503109FC01F2
:103CD00031832083CE0186599F4FFC0180819181E1
:103CE000892BA1F67BC08E0106591F4FCE018A5940
:103CF0009F4FFC0160817181828193810E94B52276
:103D0000DC01CB01F80191838083CE0182599F4F62
:103D10009E0126593F4FF90120813181FC013183F9
:103D20002083CE0182599F4FFC01808191810197B0
:103D3000F1F79E0122593F4FF901918380834EC0D4
:103D4000CE01875A9F4F20E030E04FE753E4FC015B
:103D500060817181828193810E94592318166CF5CC
:103D60008E0100591F4FCE01835A9F4FFC01608185
:103D70007181828193810E94B522DC01CB01F8011F
:103D800091838083CE018E589F4F9E0120593F4FD3
:103D9000F90120813181FC0131832083CE018E58CD
:103DA0009F4FFC01808191810197F1F79E012E5870
:103DB0003F4FF9019183808328C08E010F591F4F17
:103DC000CE01875A9F4FFC0160817181828193816E
:103DD0000E94B522DC01CB01F8018083CE018C5812
:103DE0009F4F9E012F593F4FF9012081FC012083F5
:103DF000CE018C589F4FFC018081282F2A95F1F726
:103E0000CE018C589F4FFC01208385E290E025E293
:103E100030E0F90120812D7FFC01208380E090E0DB
:103E2000A4E3B2E489AF9AAFABAFBCAF2BEA3AEAF6
:103E30004AEA50E469AD7AAD8BAD9CAD0E945E2339
:103E4000DC01CB019E01235C3F4FF901808391830C
:103E5000A283B3838E010F5B1F4F20E030E040E868
:103E600050E469AD7AAD8BAD9CAD0E945E23DC0160
:103E7000CB01F80180839183A283B38320E030E0FB
:103E800040E85FE3CE01CD96FC01608171818281C3
:103E900093810E943E2288233CF4CE018B5B9F4F8E
:103EA00021E0FC0120832AC1CE018F5B9F4F20E0DF
:103EB0003FEF4FE757E4FC0160817181828193817C
:103EC0000E94592318160CF0CDC020E030E04AE7DC
:103ED00054E469AD7AAD8BAD9CAD0E944322DC0108
:103EE000CB019E012A5B3F4FF90180839183A2831E
:103EF000B3838E01065B1F4FCE018A5B9F4F20E08C
:103F000030E04AE755E4FC01608171818281938150
:103F10000E945E23DC01CB01F80180839183A283A0
:103F2000B383CE01865B9F4F20E030E040E85FE343
:103F3000FC0160817181828193810E943E228823ED
:103F40004CF4CE01825B9F4F21E030E0FC013183D5
:103F500020836DC0CE01865B9F4F20E03FEF4FE78F
:103F600057E4FC0160817181828193810E94592311
:103F700018160CF04AC0CE018A5B9F4F20E030E05B
:103F800040E251E4FC0160817181828193810E9451
:103F90005E23DC01CB018E01025B1F4FBC01CD0112
:103FA0000E94B522DC01CB01F8019183808324C0FB
:103FB000CE01805B9F4F20E931E0FC0131832083FB
:103FC000CE01805B9F4FFC01808191810197F1F7C9
:103FD0009E01205B3F4FF90191838083CE01825B7C
:103FE0009F4F9E01225B3F4FF9012081318121507B
:103FF0003109FC0131832083CE01825B9F4FFC019C
:1040000080819181892BA1F679C08E01025B1F4FBF
:10401000CE01865B9F4FFC0160817181828193811B
:104020000E94B522DC01CB01F80191838083CE018F
:104030008E5A9F4F9E01225B3F4FF90120813181B3
:10404000FC0131832083CE018E5A9F4FFC01808179
:1040500091810197F1F79E012E5A3F4FF90191830B
:1040600080834CC020E030E04FE753E4CE01CD9692
:10407000FC0160817181828193810E94592318160D
:104080006CF58E010C5A1F4FCE018F5B9F4FFC01C8
:1040900060817181828193810E94B522DC01CB0114
:1040A000F80191838083CE018A5A9F4F9E012C5A3A
:1040B0003F4FF90120813181FC0131832083CE0102
:1040C0008A5A9F4FFC01808191810197F1F79E01EF
:1040D0002A5A3F4FF9019183808327C08E010B5BE1
:1040E0001F4FCE01CD96FC01608171818281938149
:1040F0000E94B522DC01CB01F8018083CE01885AF1
:104100009F4F9E012B5B3F4FF9012081FC012083D3
:10411000CE01885A9F4FFC018081282F2A95F1F704
:10412000CE01885A9F4FFC01208360E088E20E9404
:10413000CC0060E088E00E94CC0060E081E00E945A
:10414000CC0060E08CE00E94CC0060E080E80E943F
:10415000CC000000C454DE4F0FB6F894DEBF0FBE93
:10416000CDBFDF91CF911F910F910895CF93DF9332
:1041700000D0CDB7DEB79A8389830CC089819A813C
:10418000FC01808161E00E94CC0089819A810196C6
:104190009A83898389819A81FC018081882371F7C0
:1041A00000000F900F90DF91CF910895CF93DF9390
:1041B000CDB7DEB728970FB6F894DEBF0FBECDBFE0
:1041C00098878F8312C08F8198859D838C838C8183
:1041D0009D81FC0184918E838E8161E00E94CC00E0
:1041E0008F819885019698878F838F8198859A8390
:1041F000898389819A81FC0184918B838B818823B7
:1042000011F7000028960FB6F894DEBF0FBECDBFA1
:10421000DF91CF910895CF93DF93FC01108211823B
:104220001282138214822AB181E090E002C0880FCA
:10423000991F6A95E2F7282B2AB92BB1282B2BB9A5
:104240003BB1282F209532233BB93FEF40EE50E0A1
:10425000315040405040E1F700C000003BB1382BE6
:104260003BB93AB123232AB929B130E028233923B5
:10427000232BD1F729B130E028233923232BD1F385
:1042800029B130E028233923232BD1F7DF01C5E002
:1042900061E070E047E050E029B130E028233923A5
:1042A000232BD1F3D0E029B130E028233923232B6D
:1042B00011F0DF5FF8CFD23448F0DC919B01042E7F
:1042C00001C0220F0A94EAF72D2B2C93415051097B
:1042D00018F7C1501196C111DDCF8081218130E0E6
:1042E000280F311D8281280F311D8381280F311D38
:1042F000448150E081E02417350709F080E0DF9128
:10430000CF9108950F931F93CF93DF93182F092F09
:1043100089E090E00E94CB23EC01892B81F00F9380
:104320001F9384E191E09F938F93DF93CF930E943B
:1043300002250F900F900F900F900F900F90CE01CD
:10434000DF91CF911F910F910895CF93DF9300D00C
:1043500000D01F92CDB7DEB7CE0101965C0185E09B
:10436000F50111928A95E9F78FEF8AB984B90E9415
:104370005B000E94AE0A87E1882E81E0982E63E000
:10438000C5010E940B218823D1F38C811F928F934A
:104390008B811F928F938A811F928F9389811F92A5
:1043A0008F939F928F920E94EC248B8190E00E94C9
:1043B00082216C01898190E00E9482217C0160E071
:1043C00081E00E94CC0060E080E80E94CC0080E7A1
:1043D00090E00E94D620C6010E94B6208FE391E0B3
:1043E0000E94B62061E08FED0E94CC0081E491E054
:1043F0000E94B62060E080EC0E94CC0088E690E04D
:104400000E94D620C7010E94B62083E491E00E945A
:10441000B6200FB6F894DEBF0FBECDBF14E060E04B
:104420008CE10E94CC009FEFE9E6F8E19150E0407A
:10443000F040E1F700C00000115089F714E060E09F
:1044400088E10E94CC002FEF89E698E1215080405E
:104450009040E1F700C00000115089F7EFEFF9E656
:1044600028E1E150F0402040E1F700C00000C60123
:104470000E946324C7010E94632481CF0E94E4222A
:1044800008F481E008950E9457220C941F230E9493
:10449000182358F00E94112340F029F45F3F29F0BF
:1044A0000C94082351110C9453230C940E230E9456
:1044B000302368F39923B1F3552391F3951B550BE2
:1044C000BB27AA2762177307840738F09F5F5F4FE7
:1044D000220F331F441FAA1FA9F335D00E2E3AF026
:1044E000E0E832D091505040E695001CCAF72BD03E
:1044F000FE2F29D0660F771F881FBB1F261737078F
:104500004807AB07B0E809F0BB0B802DBF01FF27C0
:1045100093585F4F3AF09E3F510578F00C94082372
:104520000C9453235F3FE4F3983ED4F3869577953C
:104530006795B795F7959F5FC9F7880F911D969579
:10454000879597F90895E1E0660F771F881FBB1FD5
:10455000621773078407BA0720F0621B730B840B82
:10456000BA0BEE1F88F7E09508950E94382388F073
:104570009F5798F0B92F9927B751B0F0E1F0660F27
:10458000771F881F991F1AF0BA95C9F714C0B13068
:1045900091F00E945223B1E008950C945223672FAA
:1045A000782F8827B85F39F0B93FCCF38695779597
:1045B0006795B395D9F73EF4909580957095619580
:1045C0007F4F8F4F9F4F0895990F0008550FAA0BEB
:1045D000E0E8FEEF16161706E807F907C0F0121616
:1045E0001306E407F50798F0621B730B840B950B19
:1045F00039F40A2661F0232B242B252B21F408956E
:104600000A2609F4A140A6958FEF811D811D08950A
:1046100097F99F6780E870E060E008959FEF80EC75
:10462000089500240A941616170618060906089518
:1046300000240A9412161306140605060895092E7E
:104640000394000C11F4882352F0BB0F40F4BF2BED
:1046500011F460FF04C06F5F7F4F8F4F9F4F08952D
:1046600057FD9058440F551F59F05F3F71F0479523
:10467000880F97FB991F61F09F3F79F08795089508
:10468000121613061406551FF2CF4695F1DF08C027
:10469000161617061806991FF1CF86957105610544
:1046A00008940895E894BB2766277727CB0197F9EC
:1046B00008950E94E42208F48FEF08950E94712368
:1046C0000C941F230E94112338F00E94182320F01D
:1046D000952311F00C9408230C940E2311240C94B0
:1046E00053230E94302370F3959FC1F3950F50E040
:1046F000551F629FF001729FBB27F00DB11D639F94
:10470000AA27F00DB11DAA1F649F6627B00DA11D39
:10471000661F829F2227B00DA11D621F739FB00DDF
:10472000A11D621F839FA00D611D221F749F33274F
:10473000A00D611D231F849F600D211D822F762FE8
:104740006A2F11249F5750409AF0F1F088234AF0C5
:10475000EE0FFF1FBB1F661F771F881F9150504031
:10476000A9F79E3F510580F00C9408230C94532325
:104770005F3FE4F3983ED4F3869577956795B795B8
:10478000F795E7959F5FC1F7FE2B880F911D9695D2
:10479000879597F908950F931F93CF93DF938230F6
:1047A000910510F482E090E0E0914801F091490118
:1047B00020E030E0A0E0B0E0309719F14081518175
:1047C0000281138148175907C8F08417950769F4C7
:1047D000109731F012960C93129713961C9327C0E2
:1047E000009348011093490122C02115310519F0A9
:1047F0004217530718F49A01BD01EF01DF01F801D8
:10480000DBCF21153105F9F0281B390B2430310598
:1048100080F48A819B816115710521F0FB019383EE
:10482000828304C09093490180934801FE0132962F
:1048300044C0FE01E20FF31F81939193225031098E
:10484000398328833AC02091460130914701232BB8
:1048500041F42091100130911101309347012093D0
:10486000460120910E0130910F012115310541F4CF
:104870002DB73EB74091120150911301241B350B07
:10488000E0914601F0914701E217F307A0F42E1BD7
:104890003F0B2817390778F0AC014E5F5F4F2417A4
:1048A000350748F04E0F5F1F509347014093460174
:1048B0008193919302C0E0E0F0E0CF01DF91CF91CE
:1048C0001F910F910895CF93DF93009709F481C052
:1048D000FC01329713821282A0914801B0914901E4
:1048E000109781F420813181820F931F209146011E
:1048F000309147012817390751F5F0934701E093AC
:10490000460167C0ED0120E030E0CE17DF0740F43C
:104910004A815B819E0141155105F1F0EA01F5CF15
:10492000D383C28340815181840F951FC817D90753
:1049300059F488819981840F951F02969183808311
:104940008A819B81938382832115310529F4F09319
:104950004901E09348013DC0E901FB83EA834991A5
:104960005991C40FD51FEC17FD0761F48081918127
:10497000840F951F0296E901998388838281938130
:104980009B838A83E0E0F0E012968D919C911397CF
:10499000009719F0FD01DC01F7CF8D919C911197E3
:1049A0009D012E5F3F4F820F931F20914601309152
:1049B00047012817390769F4309729F41092490103
:1049C0001092480102C013821282B0934701A09353
:1049D0004601DF91CF910895A0E0B0E0E2EFF4E26C
:1049E0000C94C527AE014B5F5F4FFA016191719145
:1049F000AF0180914C0190914D010E942425E2E08D
:104A00000C94E127AEE0B0E0E8E0F5E20C94C327B7
:104A10000D891E8986E08C831A8309838FEF9FE7B7
:104A20009E838D83AE01475E5F4F6F89788DCE0187
:104A300001960E942425EF81F885E00FF11F108276
:104A40002E96E4E00C94DF27ABE0B0E0EAE2F5E27A
:104A50000C94B5276C017B018A01FC011782168238
:104A6000838181FFCCC1CE0101963C01F601938187
:104A7000F70193FD859193FF81917F01882309F4CC
:104A8000BAC1853239F493FD859193FF81917F01FD
:104A9000853229F4B60190E00E941B27E7CF912CC4
:104AA000212C312CFFE1F315D8F08B3279F038F45A
:104AB000803279F08332A1F4232D20611DC08D3224
:104AC00061F0803369F4232D216016C0832D82604C
:104AD000382EE32DE4603E2E2AC0F32DF8601DC071
:104AE00037FC2DC020ED280F2A3040F08E32B9F46B
:104AF00036FC81C1232D2064322E19C036FE06C03B
:104B00008AE0989E200D1124922E11C0EAE02E9E7C
:104B1000200D1124222EF32DF0623F2E08C08C367A
:104B200021F4832D8068382E02C0883641F4F701C5
:104B300093FD859193FF81917F018111B3CF982FD0
:104B40009F7D9554933028F40C5F1F4F9FE399830A
:104B50000DC0833631F0833771F0833509F059C0C9
:104B600021C0F801808189830E5F1F4F88248394C0
:104B7000912C530113C02801F2E04F0E511CF80193
:104B8000A080B18036FE03C0692D70E002C06FEFD7
:104B90007FEFC5010E9410274C018201F32DFF77A2
:104BA0003F2E16C0280122E0420E511CF801A080C1
:104BB000B18036FE03C0692D70E002C06FEF7FEF59
:104BC000C5010E9405274C01F32DF0683F2E82019C
:104BD00033FC1BC0822D90E088169906B0F4B60114
:104BE00080E290E00E941B272A94F4CFF50137FC65
:104BF000859137FE81915F01B60190E00E941B27ED
:104C000021102A9421E0821A91088114910471F7ED
:104C1000E8C0843611F0893641F5F80137FE07C047
:104C200060817181828193810C5F1F4F08C0608118
:104C30007181072E000C880B990B0E5F1F4FF32D0F
:104C4000FF763F2E97FF09C09095809570956195EE
:104C50007F4F8F4F9F4FF0683F2E2AE030E0A30137
:104C60000E945727882E861845C0853731F4232D9A
:104C70002F7EB22E2AE030E025C0932D997FB92EE9
:104C80008F36C1F018F4883579F0B5C0803719F047
:104C9000883721F0B0C0E92FE061BE2EB4FE0DC010
:104CA000FB2DF460BF2E09C034FE0AC0292F2660F8
:104CB000B22E06C028E030E005C020E130E002C09E
:104CC00020E132E0F801B7FE07C060817181828186
:104CD00093810C5F1F4F06C06081718180E090E07E
:104CE0000E5F1F4FA3010E945727882E8618FB2DA9
:104CF000FF773F2E36FE0DC0232D2E7FA22E891466
:104D000058F434FE0BC032FC09C0832D8E7EA82ED1
:104D100005C0B82CA32C03C0B82C01C0B92CA4FE2C
:104D20000FC0FE01E80DF11D8081803321F49A2D22
:104D3000997EA92E09C0A2FE06C0B394B39404C004
:104D40008A2D867809F0B394A3FC11C0A0FE06C09A
:104D5000B21488F4280C922C9B180EC0B21460F484
:104D6000B60180E290E00E941B27B394F7CFB21403
:104D700018F42B1802C0982C212CA4FE10C0B601E8
:104D800080E390E00E941B27A2FE17C0A1FC03C095
:104D900088E790E002C088E590E0B6010CC08A2D5B
:104DA000867859F0A1FE02C08BE201C080E2A7FC28
:104DB0008DE2B60190E00E941B27891438F4B601F9
:104DC00080E390E00E941B279A94F7CF8A94F30126
:104DD000E80DF11D8081B60190E00E941B27811033
:104DE000F5CF222009F442CEB60180E290E00E9485
:104DF0001B272A94F6CFF6018681978102C08FEF98
:104E00009FEF2B96E2E10C94D127FC0105906150B5
:104E100070400110D8F7809590958E0F9F1F0895D0
:104E2000FC016150704001900110D8F78095909579
:104E30008E0F9F1F08950F931F93CF93DF93FB0156
:104E4000238121FD03C08FEF9FEF2CC022FF16C0EE
:104E500046815781248135814217530744F4A0814C
:104E6000B1819D012F5F3F4F318320838C93268139
:104E700037812F5F3F4F3783268314C08B01EC01AE
:104E8000FB010084F185E02D0995892BE1F6D8011D
:104E900016968D919C911797019617969C938E93D9
:104EA0001697CE01DF91CF911F910F910895FA01CE
:104EB000AA27283051F1203181F1E8946F936E7F59
:104EC0006E5F7F4F8F4F9F4FAF4FB1E03ED0B4E04A
:104ED0003CD0670F781F891F9A1FA11D680F791F8B
:104EE0008A1F911DA11D6A0F711D811D911DA11D9C
:104EF00020D009F468943F912AE0269F11243019AC
:104F0000305D3193DEF6CF010895462F4770405D46
:104F10004193B3E00FD0C9F7F6CF462F4F70405DF5
:104F20004A3318F0495D31FD4052419302D0A9F750
:104F3000EACFB4E0A6959795879577956795BA954A
:104F4000C9F700976105710508959B01AC010A2E10
:104F500006945795479537952795BA95C9F7620FE7
:104F6000731F841F951FA01D08952F923F924F928B
:104F70005F926F927F928F929F92AF92BF92CF92E9
:104F8000DF92EF92FF920F931F93CF93DF93CDB7F2
:104F9000DEB7CA1BDB0B0FB6F894DEBF0FBECDBF6A
:104FA00009942A88398848885F846E847D848C843B
:104FB0009B84AA84B984C884DF80EE80FD800C8144
:104FC0001B81AA81B981CE0FD11D0FB6F894DEBF27
:0C4FD0000FBECDBFED010895F894FFCF97
:104FDC0000000003000000008B00B4000000000083
:104FEC0050012000256400556D69646164653A20A8
:104FFC0025642E2564202F2054656D7065726174B4
:10500C007572613A2025642E25642043200A002005
:06501C0000430020250006
:00000001FF
